:040000008A11112828
:10000800FE00030EF3000408F4000A08F50083124A
:1000180003137F08F6008A1118288A111328F9019A
:10002800FA0183018A116D298430F7000030F80045
:100038001E087708FE3EF00078080318013EFF3ED0
:10004800F1007108803A803C031D2C2870081E02BC
:1000580003183028F901FA017708FE3EF000780805
:100068000318013EFF3EF1007108803A803C031DF1
:1000780041287008831203131E02031C52287808B3
:10008800803A803C031D4C287708831203131E0214
:10009800031852280130F9000030FA007808803A35
:1000A800803C031D5B287708831203131E02031C80
:1000B80074287708023EF00078080318013E003ED5
:1000C800F1007108803A803C031D6E287008831285
:1000D80003131E02031874280330F9000030FA00D5
:1000E8007708023EF00078080318013E003EF10050
:1000F8007108803A803C031D852870088312031319
:100108001E02031C9E287708043EF0007808031896
:10011800013E003EF1007108803A803C031D98289A
:100128007008831203131E0203189E280730F90073
:100138000030FA007708043EF00078080318013E02
:10014800003EF1007108803A803C031DAF2870081A
:10015800831203131E02031CC8287708063EF0000A
:1001680078080318013E003EF1007108803A803C8F
:10017800031DC2287008831203131E020318C8281F
:100188000F30F9000030FA007708063EF0007808D2
:100198000318013E003EF1007108803A803C031DBF
:1001A800D9287008831203131E02031CF22877084B
:1001B800083EF00078080318013E003EF10071087F
:1001C800803A803C031DEC287008831203131E023A
:1001D8000318F2281F30F9000030FA007708083EAB
:1001E800F00078080318013E003EF1007108803ADB
:1001F800803C031D03297008831203131E02031C8D
:100208001C2977080A3EF00078080318013E003ED2
:10021800F1007108803A803C031D1629700883128A
:1002280003131E0203181C293F30F9000030FA009E
:1002380077080A3EF00078080318013E003EF100F6
:100248007108803A803C031D2D297008831203131E
:100258001E02031C462977080C3EF0007808031894
:10026800013E003EF1007108803A803C031D4029A0
:100278007008831203131E02031846297F30F90001
:100288000030FA0077080C3EF00078080318013EA9
:10029800003EF1007108803AF20080307202031DBE
:1002A8005929831203131E08700203185F297F302F
:1002B800F9000030FA00831203130C137608FF00CC
:1002C80075088A0074088400730E8300FE0E7E0E83
:1002D8000900FF30831603138500FF30860087016D
:1002E800831203138701831203179E011E158312BD
:1002F80003139F131F13831603131F088F39103816
:100308009F00831203131F08C33908389F001F1466
:100318008B150B108B170B17831603130C178230D2
:100328008312A100DD30A000A00B9829A10B982909
:0E0338009D29831203139F14790887009329CF
:02400E00D4F0EC
:00000001FF
